:1000000074C70000A3C70000A1C700009FC700007D
:100010009DC700009BC7000099C7000097C700005C
:1000200095C7000093C7000091C700008FC700006C
:100030008DC700008BC7000089C7000087C700007C
:1000400085C7000083C7000081C700007FC700008C
:100050007DC700007BC7000079C700000C948E1894
:1000600075C700000C945B170C9432176FC7000023
:100070006DC700006BC7000069C7000067C70000BC
:1000800065C7000063C7000061C700005FC70000CC
:100090005DC700005BC7000059C700000C94132720
:1000A00055C7000053C7000051C700004FC70000EC
:1000B0004DC700004BC7000049C7000047C70000FC
:1000C00045C7000043C7000041C700003FC700000C
:1000D0003DC700003BC7000039C7000037C700001C
:1000E00035C70000004306430C4318432443B34381
:1000F0003043394342434E435A4366437743834335
:10010000B3438F439B43A743C017C317B217B61718
:10011000BA17FA17C717CB17D117D517D917DF1783
:10012000E317E717FA17ED17F117F51708000000A6
:10013000BE922449123EABAAAA2ABECDCCCC4C3EDC
:1001400000000080BEABAAAAAA3E00000000BF00CB
:100150000000803F0000000000084178D3BB4387C7
:10016000D1133D190E3CC3BD4282AD2B3E68EC82DB
:1001700076BED98FE1A93E4C80EFFFBE01C4FF7F60
:100180003F000000000000407A10F35A00A0724EB9
:1001900018090010A5D4E80000E87648170000E42C
:1001A0000B54020000CA9A3B000000E1F505000074
:1001B00080969800000040420F000000A0860100D9
:1001C0000000102700000000E803000000006400A9
:1001D000000000000A000000000001000000000014
:1001E0002C76D888DC674F0823DFC1DFAE59E1B138
:1001F000B796E5E3E453C63AE651997696E8E6C247
:100200008426EB898C9B62ED407C6FFCEFBC9C9F4D
:1002100040F2BAA56FA5F490055A2AF75C936B6C6F
:10022000F9676DC11BFCE0E40D47FEF520E6B50063
:10023000D0ED902E0300943577050080841E0800D1
:1002400000204E0A000000C80C333333330F986E81
:1002500012831141EF8D2114893BE65516CFFEE63E
:10026000DB18D1844B381BF77C1D901DA4BBE42404
:10027000203284725E228100C9F124ECA1E53D2781
:10028000596F752068617665206265656E206261D0
:100290006E6E65642066726F6D20636F6E6E65634F
:1002A00074696E672E20506C6561736520636F6E94
:1002B0007461637420746865204D515454207365D3
:1002C000727665722061646D696E697374726174AF
:1002D0006F7220666F72206D6F7265206465746145
:1002E000696C732E0045786365656465642072658A
:1002F000636F6E6E6563742072617465206C696DE6
:1003000069742E20506C6561736520747279206168
:100310006761696E206C617465722E004E6F742087
:10032000617574686F72697A656420746F20636F99
:100330006E6E656374005468652064617461206941
:100340006E207468652075736572206E616D65201E
:100350006F722070617373776F7264206973206DA0
:10036000616C666F726D656400546865204D515410
:1003700054207365727669636520697320756E61B8
:100380007661696C61626C650054686520436C69D4
:10039000656E74206964656E74696669657220694A
:1003A0007320636F7272656374205554462D382034
:1003B000627574206E6F7420616C6C6F7765642059
:1003C000627920746865205365727665720054689E
:1003D000652053657276657220646F6573206E6F59
:1003E0007420737570706F727420746865206C650A
:1003F00076656C206F6620746865204D51545420DA
:1004000070726F746F636F6C207265717565737451
:10041000656400436F6E6E656374696F6E2066611C
:10042000696C6564004661696C656420746F207353
:1004300075627363726962650000000A0B02090C41
:100440000D0E08070304010000000000000000007A
:10045000000000000000000000000000000000009C
:100460000000000000121110000000000000000059
:100470000000000000000000000000000000000A72
:1004800046696C657320666F756E64206F6E2074AC
:100490006865206361726420286E616D652C20643C
:1004A00061746520616E642073697A6520696E20CD
:1004B0006279746573293A2000566F6C756D6520FA
:1004C00073697A6520284D6279746573293A200032
:1004D000566F6C756D652073697A6520284B62795B
:1004E000746573293A2000566F6C756D65207369C9
:1004F0007A6520286279746573293A20000A566F5C
:100500006C756D652074797065206973204641545F
:1005100000436F756C64206E6F742066696E642092
:1005200046415431362F4641543332207061727443
:100530006974696F6E2E0A4D616B65207375726503
:1005400020796F7527766520666F726D61747465AA
:100550006420746865206361726400556E6B6E6F11
:10056000776E0053444843005344320053443100F3
:100570000A4361726420747970653A200057697289
:10058000696E6720697320636F727265637420619E
:100590006E642061206361726420697320707265EB
:1005A00073656E742E002A2064696420796F75204B
:1005B0006368616E6765207468652063686970535D
:1005C000656C6563742070696E20746F206D617452
:1005D000636820796F757220736869656C64206F39
:1005E00072206D6F64756C653F002A204973207915
:1005F0006F757220776972696E6720636F727265BA
:1006000063743F002A206973206120636172642053
:10061000697320696E7365727465643F00696E6901
:100620007469616C697A6174696F6E206661696C66
:1006300065642E205468696E677320746F20636848
:1006400065636B3A00206279746573004672656574
:10065000206D656D3A2000204F4B0044414C4C41C9
:1006600053206F6E2070696E20440044414C4C4111
:10067000532073656E733A002062757420636F7542
:100680006C64206E6F7420646574656374206164AB
:1006900064726573732E20436865636B20706F7797
:1006A000657220616E64206361626C696E670046EA
:1006B0006F756E642067686F737420646576696314
:1006C0006520617420005265736F6C7574696F6E7C
:1006D0002061637475616C6C792073657420746F2C
:1006E0003A200053657474696E67207265736F6C8D
:1006F0007574696F6E20746F200030002077697404
:100700006820616464726573733A2000466F756E89
:10071000642064657669636520004F4646004F4E4D
:1007200000506172617369746520706F7765722023
:1007300069733A200020646576696365732E00460C
:100740006F756E6420004C6F636174696E6720641E
:100750006576696365732E2E2E0044414C4C4153DF
:10076000204C6962726172792076657273696F6E6E
:100770003A00206D61736C002E00486967683A008A
:10078000424D5020736F667477617265206F6E20E2
:1007900050494E2041342C4135204F4B0054656D5B
:1007A00070657261747572653A200053656E736F7F
:1007B0007220666F756E642E0053656E736F7220C3
:1007C0006D697373696E672121210050726F6265D4
:1007D00020424D503038353A2000444854310020F2
:1007E0004F4B004448543120736F667477617265D3
:1007F000206F6E2050494E2044004448543200205F
:100800004F4B004448543220736F667477617265B1
:10081000206F6E2050494E2044000A4448542073F3
:100820006574757000456E64206F662053572069AB
:100830006E697469616C697A6174696F6E20706841
:100840006173652C204920616D2073746172746935
:100850006E67206D6561737572696E672E005361F6
:1008600076696E6720696E74657276616C205B6D67
:10087000735D3A0053656E64696E6720696E7465D6
:100880007276616C205B6D735D3A0046696C656ED3
:10089000616D653A00205554432E004E6F772069F4
:1008A00073200054696D652073796E6320696E74DE
:1008B000657276616C2069732073657420746F2093
:1008C00033363030207365636F6E642E0077616954
:1008D00074696E672032307320666F722074696DA0
:1008E000652073796E632E2E2E00444E533A0047D6
:1008F0006174657761793A004D61736B3A000A491A
:10090000503A0049503A0045746865726E6574202B
:100910004F4B004661696C6564207573696E672092
:10092000444843500077616974696E6720666F724E
:10093000206E65740077616974696E6720666F72F6
:10094000206E657420636F6E6E656374696F6E2EC2
:100950002E2E0053442063617264204F4B0063616C
:10096000726420696E697469616C697A65642E00CD
:1009700053442063617264206661696C656400633E
:10098000617264206661696C65642C206F72206EF0
:100990006F742070726573656E7400496E69746956
:1009A000616C697A696E6720534420636172642EBA
:1009B0002E2E0020627974657300467265653A00D8
:1009C0002062797465730046726565206D656D3AC5
:1009D0002000535720696E696369616C697A61749C
:1009E000696F6E00204320005D0030005B00540002
:1009F00020002E002E0044726F707065642061200C
:100A00007061636B657400556E6B6E6F776E2065F9
:100A100072726F72004D51545420436F6E6E656355
:100A200074656421005265747279696E67204D5156
:100A3000545420636F6E6E656374696F6E20696EC7
:100A40002032207365636F6E64732E2E2E00436F09
:100A50006E6E656374696E6720746F204D515454D7
:100A60002E2E2E2000200056657273696F6E205363
:100A700057204F4B210056657273696F6E20535794
:100A8000206661696C656400446577506F696E74B7
:100A900032204F4B2100446577506F696E743220CD
:100AA0006661696C656400446577506F696E743186
:100AB000204F4B2100446577506F696E743120667A
:100AC00061696C65640048756D6964697479322088
:100AD0004F4B210048756D696469747932206661F5
:100AE000696C65640048756D696469747931204F7B
:100AF0004B210048756D69646974793120666169BC
:100B00006C65640054656D706572617475726530F2
:100B10003835204F4B210054656D706572617475D6
:100B20007265303835206661696C656400507265A5
:100B30007373757265204F4B210050726573737526
:100B40007265206661696C65640054656D706572DC
:100B5000617475726535204F4B210054656D706569
:100B600072617475726535206661696C65640054E4
:100B7000656D706572617475726534204F4B21002C
:100B800054656D7065726174757265342066616953
:100B90006C65640054656D7065726174757265335F
:100BA000204F4B210054656D7065726174757265DC
:100BB00033206661696C65640054656D70657261AF
:100BC0007475726532204F4B210054656D706572EB
:100BD000617475726532206661696C656400546584
:100BE0006D706572617475726531204F4B210054D0
:100BF000656D706572617475726531206661696CCE
:100C0000656400204920616D2073656E64696E67BC
:100C1000204D51545420646174612066726F6D20C0
:100C20004D6574656F20756E69742E2E2E00002040
:100C300044657720706F696E7420444854323A20BE
:100C4000002044657720706F696E742044485431E9
:100C50003A20002054656D702044485432284329BE
:100C60003A20002048756D696469747920444854BD
:100C7000322825293A200044485432206661696CA4
:100C80002E002054656D7020444854312843293A81
:100C900020002048756D6964697479204448543196
:100CA0002825293A200044485431206661696C2E79
:100CB000002054656D706572617475726520424DD7
:100CC000503038352843293A0050726573732850E4
:100CD00061293A00250020002000685061002000B2
:100CE0004E6F207072657373757265206368616EF4
:100CF00067652E0050726573737572652063686155
:100D00006E676520444F574E2E00507265737375A1
:100D10007265206368616E67652055502E004C61D6
:100D20007374206176657261676520707265737394
:100D30007572653D00417665726167652070726508
:100D4000737375726520002000200043002000208E
:100D5000003A002000200020002050610050726501
:100D600073737572653A2000202A430054656D70D4
:100D70006572617475726520424D503038353A2085
:100D80000020005472792053442063617264207201
:100D900065696E69742E006572726F72206F70657E
:100DA0006E696E67200064617461207361766564AA
:100DB0002E002E2E2E000A536176696E6720646124
:100DC000746120746F2066696C653A005554432045
:100DD00074696D65206973200000002100240027DC
:100DE000002A002D0030003300010100000401073B
:100DF000010A0100002200250028002B002E0031EE
:100E000000340002010000050108010B01005EBC76
:100E1000E2613FDD83C29C7E20A3FD1F41009D2334
:100E2000BE46DB65F88C11AF32CA57E9747C3C3E94
:100E30005E2B3D3F2F5B5D3B2C2A225C0020000097
:100E40000020002300260029002C002F0032000083
:100E50000100000301060109010505050507050854
:100E6000080808020202020A0A080804040404012D
:100E7000010101010101010303030303030303044F
:100E80000707070C0C0C0C0C0C0C0C0202020206DF
:100E9000060606060606060B0B0B0B0B0B0B0B01CF
:100EA000021020200808102040102040800201027B
:100EB0000108040201010204081020408080402043
:100EC000100804020180040201804020100804027E
:100ED00001080402010102040810204080010204FC
:100EE0000810204080008B578A5711241FBECFEF77
:100EF000D1E2DEBFCDBF00E00CBF15E0A0E0B2E064
:100F0000EEEAF6EC00E00BBF02C007900D92AE37A0
:100F1000B107D9F72DE0AEE7B5E001C01D92AE38BC
:100F2000B207E1F717E0C4E7D7E000E006C0219779
:100F30000109802FFE010E94F261C337D10780E0D2
:100F40000807A9F70E94C1410C94466359C880E381
:100F5000FB0180833296842F82958F7090E1899F68
:100F6000401911244A3014F4405D01C0495C429399
:100F7000482F8111F0CF08954F925F926F927F9228
:100F80008F929F92AF92BF92CF92DF92EF92FF9299
:100F90000F931F93CF93DF934B015C018091680700
:100FA00090916907A0916A07B0916B07881699061E
:100FB000AA06BB0609F4C2C08CE3C82ED12CE12CD2
:100FC000F12CC501B401A70196010E940F60609346
:100FD0006C07CA01B901A70196010E940F606093D6
:100FE0006D07CA01B90128E130E040E050E00E94FD
:100FF0000F6069017A0160936E07CA01B9016C5FE5
:101000007F4F8F4F9F4F27E030E040E050E00E943D
:101010000F606F5F60936F07412C512C320140E0ED
:1010200004E610E0C0E9D1E0242F30E02E54384F20
:10103000F901E370FF27309789F4C901B8010E94D4
:10104000DF61892B31F4C901BE010E94DF61892B68
:1010500029F48EE691E0A0E0B0E004C08DE691E0D6
:10106000A0E0B0E0480E591E6A1E7B1ED301C201EB
:10107000AA27BB27C816D906EA06FB0610F04F5F61
:10108000D3CF40937207309799F4C90164E670E0BA
:101090000E94DF61892B39F4C90160E971E00E9487
:1010A000DF61892B29F48EE691E0A0E0B0E004C076
:1010B0008DE691E0A0E0B0E0481A590A6A0A7B0A7E
:1010C000C418D508E608F708C90164E670E00E9474
:1010D000DF61EC01C90160E971E00E94DF61A4ED0C
:1010E000B2E020E0213039F4309749F4209729F418
:1010F000009729F402C04C9103C04DE101C04CE1BE
:1011000050E060E070E0C416D506E606F70640F051
:10111000C41AD50AE60AF70A2F5F11962C3011F788
:101120002F5F20937107C394C09270078092680765
:1011300090926907A0926A07B0926B07DF91CF91F6
:101140001F910F91FF90EF90DF90CF90BF90AF90E5
:101150009F908F907F906F905F904F90089508952B
:1011600080E090E008950C94335B4F925F926F9211
:101170007F928F929F92AF92BF92CF92DF92EF9227
:10118000FF92CF93DF9300D000D0CDB7DEB780E3DE
:10119000E8E3F7E0DF011D928A95E9F783EE80939B
:1011A000380786E080933A078CEE80933B0781E313
:1011B000809344079EE4909345078093460784E319
:1011C0008093470782E993E09A83898380912E0D6B
:1011D00090912F0DA091300DB091310D8B839C8398
:1011E000AD83BE834BE750E0BE016F5F7F4F82E36C
:1011F0009DE00E94032F40E350E068E377E082E344
:101200009DE00E94622A82E39DE00E942F2E68EEFC
:1012100073E080E090E00E944A1882E39DE00E9423
:10122000BC2D892B09F493C040E350E068E377E0DC
:1012300082E39DE00E94762DC0906007D12CDC2CCB
:10124000CC2480916107C82AE12CF12C7601DD24A1
:10125000CC248091620790E0982F88272091630723
:10126000822BA0E0B0E0C82AD92AEA2AFB2AB0E8FB
:10127000CB1ABEE7DB0ABAEAEB0AB3E8FB0A6CEC6E
:101280007DE087E59AE00E946C15C701B60120E871
:1012900031E541E050E00E940F6040E1842E4EE0D5
:1012A000942EA12CB12CA50194010E940F60BA01CB
:1012B000A9012AE087E59AE00E94A5156AE387E57F
:1012C0009AE00E946515C701B601A50194010E942C
:1012D0000F602B013C0188E5481682E05806610446
:1012E000710428F460E387E59AE00E9465158CE3B9
:1012F000882E912CA12CB12CC301B201A50194011F
:101300000E940F60BA01A9012AE087E59AE00E94D5
:10131000A5156AE387E59AE00E946515C701B60145
:10132000A50194010E940F604B015C016A307105B8
:101330008105910528F460E387E59AE00E94651530
:10134000C501B4010E949639B601C70104C060E02E
:1013500070E080E090E026960FB6F894DEBF0FBEF6
:10136000CDBFDF91CF91FF90EF90DF90CF90BF90F6
:10137000AF909F908F907F906F905F904F90089567
:101380002F923F924F925F926F927F928F929F9295
:10139000AF92BF92CF92DF92EF92FF920F931F9383
:1013A000CF93DF93CDB7DEB7E3970FB6F894DEBFE8
:1013B0000FBECDBF7C011A012B0139010E9482189A
:1013C0004B015C0187010D5B1F4FC8010E94BC2DC2
:1013D00018161906A4F00E948218DC01CB018819A6
:1013E0009909AA09BB09281639064A065B06D8F0EE
:1013F00062E370E080E090E00E944A18E6CF42E2AB
:1014000050E0BE016F5F7F4FC8010E94762D898139
:10141000823011F080E061C1F801848995898334BC
:101420009105C1F702C08FEF58C16D817E818F8118
:1014300098850E94FA614B015C01F301608371831E
:101440008283938346E050E0B701685F7F4FCE010F
:101450004D960E94FE62892BE9F6F7018081918109
:10146000A281B38188169906AA06BB0698F28481E8
:101470009581A681B78188159905AA05BB0550F20B
:1014800089899A89AB89BC8986879787A08BB18B1C
:101490008EECA82EB12CC8010E94942DF1E0AF1A59
:1014A000B108C9F719A6670182E2C80ED11CF7017D
:1014B000B696FBA7EAA7C7018A969DA78CA73C977B
:1014C0004F0189969FA78EA73897F9ABE8AB170114
:1014D000F6E12F0E311CC5979BAB8AABF801818DCD
:1014E000928D181619060CF0F7C0C8010E94942DB1
:1014F0008333910509F4CBC0FCF481309105C9F127
:101500001CF4892B59F3DCC083309105D1F1069787
:1015100009F0D6C0C8010E94942D5C0144E050E05F
:101520006AA97BA9C8010E94762D412C512CBB24AD
:10153000F4E0AF1AB10840C08A33910509F47BC0CA
:101540003CF48533910569F0C69709F440C0B8C0F2
:101550008B33910509F485C08F3F910509F4BECF07
:10156000AFC0C8010E94942DC8010E94942D89A784
:10157000B5CFC8010E94942D44E050E068A979A934
:101580003AC0C8010E94942D5C0144E050E0B101D2
:10159000C8010E94762D412C512CBB2494E0A91A3D
:1015A000B1084A145B040CF099CFC8010E94942D35
:1015B000EFEF4E1A5E0AF5CF4A145B040CF08ECFA3
:1015C000C8010E94942D8FEF481A580AF5CFC80120
:1015D0000E94942DB82EF701828D811110C0838D49
:1015E00081110DC0848D81110AC0858D811107C0C4
:1015F00044E050E0B401C8010E94762D6FCFEEA503
:10160000FFA54080518062807380B401CE01839633
:101610000E9422178DA19EA1AFA1B8A584159505A2
:10162000A605B70529F3BB2009F458CFC8010E94CD
:10163000942DBA94F8CFC8010E94942D44E050E054
:101640006AA57BA5C8010E94762DF70166A177A146
:1016500080A591A50E94FA6166A377A380A791A7B0
:101660003DCFC8010E94942D44E050E06CA57DA5BB
:10167000C8010E94762DF70162A573A584A595A5E2
:101680000E94FA6162A773A784A795A727CFC80114
:101690000E94942D44E050E0B601C8010E94762DCE
:1016A000F70162A173A184A195A10E94FA6162A3CE
:1016B00073A384A395A366A777A780AB91AB0ECF46
:1016C000C8010E94942DB82EBB2009F407CFC80191
:1016D0000E94942DBA94F8CF89A5E3960FB6F8949A
:1016E000DEBF0FBECDBFDF91CF911F910F91FF9055
:1016F000EF90DF90CF90BF90AF909F908F907F90B2
:101700006F905F904F903F902F9008957F928F92AF
:101710009F92AF92BF92CF92DF92EF92FF920F9380
:101720001F93CF93DF93CDB7DEB7A6970FB6F8948C
:10173000DEBF0FBECDBF8C01762E942E852E20E20B
:10174000B22ECE0101967C01FC012B2D11922A951F
:10175000E9F782E993E09AA389A38FEF8BA38CA387
:101760008DA38EA3680183E4C80ED11C43E450E02E
:10177000BE016F5D7F4FC6010E94032F019609F4E1
:10178000BCC081E089838A8386E0A82EAB821C825C
:10179000F80164817581868197810E94FA616D8369
:1017A0007E838F83988789869A8680E890E09C87DD
:1017B0008B874CE150E0B701C6010E94622AF70115
:1017C0002B2D11922A95E9F7480188E0880E911C8B
:1017D000F401D70101900D92AA94E1F740E150E0A5
:1017E000B701C6010E94622AF7011192BA94E9F783
:1017F00096E0A92EB12C40E250E0B701C6010E944C
:10180000622AF1E0AF1AB108B1F783E6898392E862
:101810009A8393E59B838C8385E38D8381E08E831C
:101820007F829DE3988797E099878A8786E0F40115
:10183000DE011B9601900D928A95E1F78CE0898B71
:101840008A8B68EE73E0CE0143960E943063F80104
:101850004385BE01675E7F4FC80179DBF80144858F
:10186000BE01655E7F4FC80172DBF8014585BE0190
:10187000635E7F4FC8016BDB4EE150E0B701C601EC
:101880000E94622AF3E07F121EC082E3898384E013
:101890008A83F80196859B8397859C8390899D8395
:1018A00091899E8396E39F838887828D8987838D24
:1018B0008A87848D8B87858D8C874CE050E0B701BB
:1018C000C6010E94622A87E3898386E08A8391E0C9
:1018D0009B8393E09C838D838FE08E838AE38F8349
:1018E0008BE388878FEF898749E050E0B701C60115
:1018F0000E94622AC6010E942F2EA6960FB6F89467
:10190000DEBF0FBECDBFDF91CF911F910F91FF9032
:10191000EF90DF90CF90BF90AF909F908F907F908F
:101920000895CF93DF931F921F92CDB7DEB720911A
:101930008A0D30918B0DCE0101962115310519F4D8
:101940008E589D4002C0821B930B9A8389838981A4
:101950009A810F900F90DF91CF910895CF92DF92EF
:10196000EF92FF920F931F930E948218C09073070B
:10197000D0907407E0907507F09076078B019C017A
:101980000C191D092E093F09809186059091870544
:10199000A0918805B0918905083E134021053105C5
:1019A000D0F00196A11DB11D809386059093870507
:1019B000A0938805B0938905B701A60148515C4FF3
:1019C0006F4F7F4F40937307509374076093750771
:1019D00070937607C9CF409182055091830560913D
:1019E00084057091850584179507A607B70708F445
:1019F00060C0E0917E05F0917F05309709F459C0F1
:101A0000199500910002109101022091020230917B
:101A10000302611571058105910539F16093860511
:101A2000709387058093880590938905DC01CB012D
:101A3000800F911FA21FB31F80938205909383058F
:101A4000A0938405B093850582E090E09093810592
:101A5000809380050E9482186093730770937407C7
:101A6000809375079093760724C040918605509126
:101A700087056091880570918905D901C801840F97
:101A8000951FA61FB71F8093820590938305A0938F
:101A90008405B093850581E090E020918005309128
:101AA0008105232B11F480E090E0909381058093D1
:101AB00080056091860570918705809188059091D9
:101AC00089051F910F91FF90EF90DF90CF900895BF
:101AD00045DF52DA8091720790E08E54984F089556
:101AE0003DDF4ADA8091710790E0089537DF44DAEC
:101AF0008091700790E0089531DF3EDA80916C07A5
:101B000090E008952BDF38DA80916D0790E008951A
:101B100025DF32DA80916E0790E00895089560E045
:101B200080E00E94C93B68EB72E08BEB9BE00E9477
:101B3000211722E030E04AE959E969E97FE38BEBBC
:101B40009BE00C94CA164F925F926F927F928F9295
:101B50009F92AF92BF92CF92DF92EF92FF92CF937C
:101B6000DF93EC01072E000C880B990B0E94C85ED6
:101B70006B017C01BE01DD0F880B990B0E94C85ED2
:101B80000E9442614B015C0120E030E040EF50E4F4
:101B9000C701B6010E94275F2B013C012DEC3CE4FC
:101BA0004DE653E4C701B6010E9441609B01AC01C0
:101BB000C301B2010E94A56029E338E249E25FE374
:101BC0000E9441606B017C0120E030E040E050E485
:101BD000C501B4010E9440609B01AC01C701B60180
:101BE0000E9441606B017C0129E338E249E25FE336
:101BF0000E9440602DEC3CE44DE653E40E94275FD8
:101C00004B015C01A701960164E872E982E091E46E
:101C10000E9440609B01AC01C501B4010E94A56017
:101C2000DF91CF91FF90EF90DF90CF90BF90AF907A
:101C30009F908F907F906F905F904F900895CF937B
:101C4000DF93EC010A9764F4613029F460E38BEBD5
:101C50009BE03BD707C060E387E59AE036D706C034
:101C6000613021F4BE018BEB9BE003C0BE0187E530
:101C70009AE0DF91CF910C949139CF93C82F8130A6
:101C800081F534DFBC018BEB9BE00E9491396FEE54
:101C900073E08BEB9BE00E94211722DFBC018BEBF2
:101CA0009BE00E9491396FEE73E08BEB9BE00E940A
:101CB00021170EDFBC018BEB9BE00E94913961EF95
:101CC00073E08BEB9BE00E94211722DF61E0B7DF1E
:101CD00061EE73E08BEB9BE00E94211713DF61E064
:101CE00038C004DFBC0187E59AE00E9491396FEEAD
:101CF00073E087E59AE00E942117F2DEBC0187E5D8
:101D00009AE00E9491396FEE73E087E59AE00E94B5
:101D10002117DEDEBC0187E59AE00E94913961EF70
:101D200073E087E59AE00E942117F2DE6C2F87DFCF
:101D300061EE73E087E59AE00E942117E3DE6C2FE5
:101D40007EDF61EE73E087E59AE00E942117D4DE22
:101D50006C2FCF9174CF5F926F927F928F929F92F0
:101D6000AF92BF92CF92DF92EF92FF920F931F93A9
:101D7000CF93DF93CDB7DEB7C159D1090FB6F89431
:101D8000DEBF0FBECDBF582E61E08FE00E94C93B81
:101D900063E08BEB9BE00E94B326C457DF4F1982B0
:101DA0001882CC58D040C257DF4F19821882CE58C3
:101DB000D040C057DF4F19821882C059D04040E050
:101DC00050E069E074E0CE0184579F4F18D6CA579F
:101DD000DF4F19821882C658D040C857DF4F19828A
:101DE0001882C858D040C657DF4F19821882CA5887
:101DF000D04040E050E069E074E0CE018A579F4F48
:101E0000FED56EDE8A3040F441E050E066E174E0D9
:101E1000CE0184579F4FF3D563DE4AE0BC01CE016B
:101E200001961CD6BE016F5F7F4FCE0184579F4F36
:101E3000E0D5CE0101960DD659DE8A3040F441E05E
:101E400050E066E174E0CE018A579F4FD8D54EDE50
:101E50004AE0BC01CE01019601D6BE016F5F7F4F03
:101E6000CE018A579F4FC5D5CE010196F2D530DEFF
:101E70004AE0BC01CE0180589F4FF0D531DE0A9771
:101E800034F466E174E0CE0180589F4FA4D528DE7B
:101E90004AE0BC01CE010196E1D5BE016F5F7F4FE4
:101EA000CE0180589F4FA5D5CE010196D2D51EDE1A
:101EB0000A9734F466E174E0CE0180589F4F8BD5C9
:101EC00015DE4AE0BC01CE010196C8D5BE016F5FA8
:101ED0007F4FCE0180589F4F8CD5CE010196B9D54A
:101EE00066ED73E0CE0180589F4F75D587E59AE087
:101EF00095D780E0C2DE66EB7DE087E59AE0ECD521
:101F0000CC57DF4F48815981C458D040C058DF4F6B
:101F100068817981C058D04087E59AE0B0D362EB00
:101F20007DE087E59AE0D8D5CC57DF4F088119814D
:101F3000C458D040CE018D589F4F7C01011511052A
:101F400011F4FC0112C00C30110510F00CE010E08F
:101F5000C058DF4F68817981C058D040A801C701BF
:101F60000E943763F701E00FF11F108219A218A237
:101F700080EB93E09F8F8E8F1BA21C821B829A8323
:101F800089831E8262E07BE0CE014E960E94C931B9
:101F9000CE0101964C018E01025E1F4F57016FE288
:101FA00070E0C5010E942563009709F442C0F50165
:101FB00020812F3221F4FFEFAF1ABF0AF0CF8A1928
:101FC0008D3008F08CE0C82ED12CA601B501CE01D1
:101FD000885A9F4F0E943763E8E5F0E0EC0FFD1F41
:101FE000EC0DFD1D1082C4010E94AB35F40185810A
:101FF000882351F01EAE1DAE80EB93E09CAF8BAFFB
:1020000021961FAE219763C021E0AE01485A5F4F71
:10201000B801C4010E941634882361F3AC0CBD1CC6
:10202000C8010E94AB35902F812F8401892E982EF4
:10203000B6CF35016E187F08F801828193819EAF7B
:102040008DAF80EB93E09CAF8BAF84818FAF8581A8
:1020500021968FAF219786819781A085B18525969E
:102060008CAF9DAFAEAFBFAF259782859385A4851A
:10207000B58529968CAF9DAFAEAFBFAF299786854A
:102080009785A089B1892D968CAF9DAFAEAFBFAFBC
:102090002D9782892E968FAF2E9783899489A58953
:1020A000B68962968CAF9DAFAEAFBFAF629787899E
:1020B000908DA18DB28D66968CAF9DAFAEAFBFAF48
:1020C0006697838D948D68969FAF8EAF6897E60C68
:1020D000F71CF701808181114DC08DAD9EAD9C83B1
:1020E0008B8380EB93E09A8389838FAD8D832196D8
:1020F0008FAD21978E8325968CAD9DADAEADBFADD6
:1021000025978F839887A987BA8729968CAD9DAD2F
:10211000AEADBFAD29978B879C87AD87BE872D96C7
:102120008CAD9DADAEADBFAD2D978F87988BA98B34
:10213000BA8B2E968FAD2E978B8B62968CAD9DAD04
:10214000AEADBFAD62978C8B9D8BAE8BBF8B669611
:102150008CAD9DADAEADBFAD6697888F998FAA8FC0
:10216000BB8F68968EAD9FAD68979D8F8C8F43EF28
:1021700053E078C019A218A200EB13E01F8F0E8F56
:102180001BA221968FAD219781111CC06C961FAEAA
:102190001EAE6C9788EE93E0A0E0B0E0A0968CAF06
:1021A0009DAFAEAFBFAFA0978CE393E06A969FAFB1
:1021B0008EAF6A97E3961FAE1EAEE397A5961FAE4D
:1021C000A59758C027E1A701BE01655C7F4FCE01EE
:1021D0004E960E9416348823C9F2CE01CB960E94F7
:1021E000AB3549A95AA96BA97CA9CE014E960E948C
:1021F000E73088A199A19C838B831A8309838AA1E4
:102200008D838BA18E838CA19DA1AEA1BFA18F8355
:102210009887A987BA8788A599A5AAA5BBA58B8702
:102220009C87AD87BE878CA59DA5AEA5BFA58F87D2
:10223000988BA98BBA8B88A98B8B89A99AA9ABA9F2
:10224000BCA98C8B9D8BAE8BBF8B8DA99EA9AFA992
:10225000B8AD888F998FAA8FBB8F89AD9AAD9D8FAE
:102260008C8FA701BE016F5F7F4FCE01885A9F4FB1
:102270000E94C524E396EEADFFADE397309709F4D5
:10228000A5C18581882309F4A1C130DCBC01CE0140
:10229000885A9F4F0E9491396FEE73E0CE01885AA1
:1022A0009F4FCFD51DDCBC01CE01885A9F4F0E94A5
:1022B00091396FEE73E0CE01885A9F4FC2D508DC8A
:1022C000BC01CE01885A9F4F0E94913961EF73E0A3
:1022D000CE01885A9F4FB5D51BDC0A972CF460E3DA
:1022E000CE01885A9F4FF1D313DCBC01CE01885A2E
:1022F0009F4F0E94913961EE73E0CE01885A9F4F43
:10230000A0D500DC0A972CF460E3CE01885A9F4FD9
:10231000DCD3F8DBBC01CE01885A9F4F0E94913973
:1023200061EE73E0CE01885A9F4F8BD5E5DB0A97AB
:102330002CF460E3CE01885A9F4FC7D3DDDBBC018C
:10234000CE01885A9F4F0E94913965EF73E0CE010C
:10235000885A9F4F76D5F12C0AE010E08F2D90E03F
:1023600020918A0530918B058217930708F044C0AD
:10237000880F991F880F991FFC01E457FA4F20E03E
:1023800030E040E251E460817181828193810E945A
:10239000275F0E940D616B01675F7F4F6930710598
:1023A00030F467EF73E0CE01885A9F4F4AD5C601DB
:1023B000B8010E94DF61D82EE92ECE01885A9F4FC6
:1023C0000E94913969EF73E0CE01885A9F4F39D549
:1023D0006D2D7E2D77FF03C0719561957109CE013A
:1023E000885A9F4F0E94913965EF73E0CE01885A59
:1023F0009F4F27D5F394B2CF4091DC055091DD0576
:102400006091DE057091DF0522E030E0CE01885A50
:102410009F4FC0D465EF73E0CE01885A9F4F11D50E
:102420004091E8055091E9056091EA057091EB054E
:1024300022E030E0CE01885A9F4FACD465EF73E0C4
:10244000CE01885A9F4FFDD46091E6057091E70553
:10245000CE01885A9F4F0E94913965EF73E0CE01FB
:10246000885A9F4FEED40091E6051091E7056091E0
:10247000E8057091E9058091EA059091EB050E94CD
:102480000D61DC01CB01B8015EDB20E030E040E211
:1024900051E40E94275F0E940D61CB016AE070E069
:1024A0000E94DF618C01CE01885A9F4F0E949139B2
:1024B00069EF73E0CE01885A9F4FC3D4B80117FF6C
:1024C00003C0719561957109CE01885A9F4F0E9492
:1024D000913965EF73E0CE01885A9F4FB2D4409195
:1024E000E2055091E3056091E4057091E50522E075
:1024F00030E0CE01885A9F4F4DD465EF73E0CE0196
:10250000885A9F4F9ED46091E0057091E105CE01FD
:10251000885A9F4F0E94913965EF73E0CE01885A27
:102520009F4F8FD40091E0051091E1056091E20585
:102530007091E3058091E4059091E5050E940D619D
:10254000DC01CB01B801FFDA20E030E040E251E4E9
:102550000E94275F0E940D61CB016AE070E00E943B
:10256000DF618C01CE01885A9F4F0E94913969EF3B
:1025700073E0CE01885A9F4F64D4B80117FF03C09F
:10258000719561957109CE01885A9F4F0E949139CA
:1025900068E074E0CE01885A9F4F53D4E3968EAD25
:1025A0009FADE397009761F00E94AB35E3968EAD47
:1025B0009FADE3970E94335BE3961FAE1EAEE39799
:1025C00066EA7DE087E59AE02CD415C067E97DE0F6
:1025D00087E59AE081D2CE0180589F4F0E94991FD3
:1025E00063E87DE087E59AE01CD40E94EC2051105E
:1025F00002C081E0B0DB61E08FE00E94C93B61E88E
:102600007DE08BEB9BE068D2CE0180589F4F21D2BA
:10261000CE018A579F4F1DD2CE0184579F4F19D2AA
:10262000CF56DF4F0FB6F894DEBF0FBECDBFDF91A0
:10263000CF911F910F91FF90EF90DF90CF90BF90BF
:10264000AF909F908F907F906F905F9008950F93C1
:102650001F93CF93DF93EC018B0141E024D68111CE
:1026600008C040E0B801CE01DF91CF911F910F91DA
:102670001AC681E0DF91CF911F910F910895CF92FB
:10268000DF92EF92FF920F931F93CF93DF936C0132
:102690007A018B01C0E0D0E0CE15DF0589F0D801CA
:1026A0006D918D01D601ED91FC910190F081E02DAD
:1026B000C6011995892B11F47E0102C02196ECCF39
:1026C000C701DF91CF911F910F91FF90EF90DF90A5
:1026D000CF900895FC01538D448D252F30E0842F39
:1026E00090E0821B930B541710F0CF96089501973A
:1026F0000895FC01918D828D981761F0828DDF0124
:10270000A80FB11D5D968C91928D9F5F9F73928FE4
:1027100090E008958FEF9FEF0895FC01918D828DD9
:10272000981731F0828DE80FF11D858D90E00895A6
:102730008FEF9FEF0895FC01918D228D892F90E0FE
:10274000805C9F4F821B91098F739927089587E5BD
:102750009AE0F1DF21E0892B09F420E0822F08952F
:10276000FC01848DDF01A80FB11DA35ABF4F2C912E
:10277000848D90E001968F739927848FA689B789FD
:102780002C93A089B1898C9180648C93938D848DD6
:10279000981306C00288F389E02D80818F7D8083A5
:1027A0000895EF92FF920F931F93CF93DF93EC0165
:1027B00081E0888F9B8D8C8D981305C0E889F989FD
:1027C000808185FD23C0F62E0B8D10E00F5F1F4F1B
:1027D0000F731127E02E8C8DE8120BC00FB607FC8B
:1027E000FACFE889F989808185FFF5CFCE01B8DF7E
:1027F000F2CF8B8DFE01E80FF11DE35AFF4FF082FF
:102800000B8FEA89FB898081806207C0EE89FF898E
:102810006083E889F98980818064808381E090E029
:10282000DF91CF911F910F91FF90EF900895CF937B
:10283000DF93EC01888D8823C1F0EA89FB898081D0
:1028400085FD05C0A889B9898C9186FD0EC00FB69B
:1028500007FCF5CF808185FFF2CFA889B9898C91DB
:1028600085FFEDCFCE017CDFE8CFDF91CF910895DA
:1028700080E090E0892B19F06ADF811125C080E0AB
:1028800090E0892B41F080E090E0892B21F00E94BC
:10289000000081111CC080E090E0892B41F080E0B5
:1028A00090E0892B21F00E940000811113C080E08C
:1028B00090E0892BA1F080E090E0892B81F00E94CC
:1028C000000081110AC008950E940000D8CF0E9424
:1028D0000000E1CF0E940000EACF0C9400000895B0
:1028E0003FB7F8948091840990918509A091860959
:1028F000B091870926B5A89B05C02F3F19F0019616
:10290000A11DB11D3FBFBA2FA92F982F8827820F75
:10291000911DA11DB11DBC01CD0142E0660F771FC5
:10292000881F991F4A95D1F708950E94FA620F9364
:102930001F93CF93DF93EC0188819981009729F051
:102940002A813B812617370788F48B016F5F7F4F01
:102950000E941562009761F0998388831B830A8324
:102960002C813D81232B11F4FC01108281E001C0F8
:1029700080E0DF91CF911F910F910895EF92FF9228
:102980000F931F93CF93DF93FC0124813581611551
:10299000710511F480E018C041155105A1F07B01CB
:1029A000EC018A01020F131FB801C1DF882391F3E4
:1029B000288139818C819D81B701820F931F0E94EC
:1029C00030631D830C8381E0DF91CF911F910F91C4
:1029D000FF90EF9008956115710549F0FB0101909A
:1029E0000020E9F73197AF01461B570BC7CF80E0B6
:1029F0000895FB014481558160817181BFCFEF92C1
:102A0000FF920F931F93CF93DF93EC017B018A0119
:102A1000BA018DDF2881398181110DC02115310561
:102A200019F0C9010E94335B198218821D821C8231
:102A30001B821A8206C01D830C83B701C9010E9444
:102A40003063CE01DF91CF911F910F91FF90EF90F6
:102A50000895FC01808191810C94335BEF92FF9289
:102A60000F931F93CF93DF93CDB7DEB762970FB667
:102A7000F894DEBF0FBECDBF8C01CB01F8011182EF
:102A80001082138212821582148250E09E012F5F01
:102A90003F4F7901B9010E94205CF70101900020AD
:102AA000E9F73197AF014E195F09B701C801A7DFF8
:102AB00062960FB6F894DEBF0FBECDBFDF91CF9107
:102AC0001F910F91FF90EF900895DC01ED91FC9123
:102AD0000190F081E02D1994EF92FF920F931F93D4
:102AE000CF93DF938C017B01C0E0D0E0F701EC0FC6
:102AF000FD1F6491662361F0D801ED91FC91019076
:102B0000F081E02DC8011995892B11F02196EECFA7
:102B1000CE01DF91CF911F910F91FF90EF9008951B
:102B20006115710579F0FB0101900020E9F73197FB
:102B3000AF01461B570BDC01ED91FC910280F38144
:102B4000E02D199480E090E008954F925F926F928B
:102B50007F92EF92FF920F931F93CF93DF93CDB7A6
:102B6000DEB7A1970FB6F894DEBF0FBECDBF7C01D4
:102B7000FA01CB0119A2223008F42AE08E010F5D80
:102B80001F4F422E512C612C712CBF01A3019201C9
:102B90000E940F60F901CA01015011096A3014F452
:102BA000605D01C0695CD8016C93232B242B252B1D
:102BB00061F7B801C701B4DFA1960FB6F894DEBF84
:102BC0000FBECDBFDF91CF911F910F91FF90EF907E
:102BD0007F906F905F904F9008954F925F926F92A9
:102BE0007F928F929F92AF92BF92CF92DF92EF929D
:102BF000FF92CF93DF93EC016A017B01B22E9A0121
:102C0000AB01C701B6010E948D61882319F06BEFFB
:102C100073E027C026013701E89477F82FEF3FEFE4
:102C20004FE75FE7C301B2010E948D6181110DC0C2
:102C30002FEF3FEF4FE75FE7C301B2010E94C25E93
:102C400018161CF46FEF73E00CC02FEF3FEF4FE747
:102C50005FE4C701B6010E943E61181694F463E078
:102C600074E0CE01DF91CF91FF90EF90DF90CF9095
:102C7000BF90AF909F908F907F906F905F904F909C
:102C80004FCF2FEF3FEF4FE75FECC701B6010E9438
:102C9000C25E87FDE4CF20E030E0A901C701B601A4
:102CA0000E94C25E87FF09C06DE2CE010EDF4C01BB
:102CB000F7FAF094F7F8F09402C0812C912CA12C33
:102CC00060E070E080E09FE3AB1441F020E030E092
:102CD00040E251E40E94A560A394F6CF9B01AC01B1
:102CE000C701B6010E9441602B013C010E941261A4
:102CF0006B017C010E94C65E9B01AC01C301B20165
:102D00000E9440602B013C012AE0B701A601CE01E0
:102D10001CDF7C01E80CF91CBB2029F06EE2CE011F
:102D2000D4DEE80EF91EDB2CDD2021F120E030E0BE
:102D300040E251E4C301B2010E94275F2B013C0134
:102D40000E9412614B01A12CB12C2AE0B501A40113
:102D5000CE01FBDEE80EF91EC501B4010E94C65E7D
:102D60009B01AC01C301B2010E9440602B013C01F8
:102D7000DA94DACFC701DF91CF91FF90EF90DF9027
:102D8000CF90BF90AF909F908F907F906F905F900B
:102D90004F90089522CF8F929F92AF92BF92CF9281
:102DA000DF92EF92FF920F931F93CF93DF937C01FB
:102DB0008B016C0182E0C80ED11C4701E5E08E0E4C
:102DC000911CC0E0D0E0F60141916F0150E060E05D
:102DD00070E02AE0C801B9DE5C016EE2C80175DE70
:102DE0008A0D9B1DC80FD91FC814D90461F7F701BC
:102DF000458150E060E070E02AE0C801A6DE8C0F5B
:102E00009D1FDF91CF911F910F91FF90EF90DF9069
:102E1000CF90BF90AF909F908F90089567E074E03F
:102E20007FCE0F931F93CF93DF93EC0155DE8C0180
:102E3000CE01F4DF800F911FDF91CF911F910F9191
:102E400008956ECE22E933E0FC0131832083FB013B
:102E50004081518162817381FC0142835383648389
:102E6000758308951F920F920FB60F9211240BB61F
:102E70000F922F933F934F935F936F937F938F9313
:102E80009F93AF93BF93EF93FF9387E59AE068DC3E
:102E9000FF91EF91BF91AF919F918F917F916F9132
:102EA0005F914F913F912F910F900BBE0F900FBEEE
:102EB0000F901F9018951F920F920FB60F9211242A
:102EC0000BB60F922F938F939F93EF93FF93E09105
:102ED000670AF091680A8081E0916D0AF0916E0AAC
:102EE00082FD12C090818091700A8F5F8F73209154
:102EF000710A821751F0E091700AF0E0E95AF54F3B
:102F0000958F8093700A01C08081FF91EF919F910E
:102F10008F912F910F900BBE0F900FBE0F901F90AF
:102F20001895362F90E0FC01E75CFB4F4491FC01C3
:102F3000E156F14F2491FC01E75AF14F9491992306
:102F400009F46BC0442309F455C050E0FA013197ED
:102F5000E231F10508F04EC08827EC57FF4F8F4F44
:102F60000C94F261809180008F7707C0809180007F
:102F70008F7D03C080918000877F809380003AC05E
:102F800084B58F7702C084B58F7D84BD33C08091B6
:102F9000B0008F7703C08091B0008F7D8093B00028
:102FA00029C0809190008F7707C0809190008F7D1D
:102FB00003C080919000877F809390001BC0809118
:102FC000A0008F7707C08091A0008F7D03C0809103
:102FD000A000877F8093A0000DC0809120018F7793
:102FE00007C0809120018F7D03C080912001877FE1
:102FF00080932001E92FF0E0EE0FFF1FED50F24F1C
:10300000A591B4918FB7F894EC91311103C020953C
:103010002E2301C02E2B2C938FBF0895CF93DF93C7
:1030200090E0FC01E156F14F2491FC01E75AF14F89
:103030008491882361F190E0880F991FFC01E75289
:10304000F24FC591D491FC01ED50F24FA591B4918E
:10305000611109C09FB7F8948881209582238883E5
:10306000EC912E230BC0623061F49FB7F894388145
:10307000822F809583238883EC912E2B2C939FBFE6
:1030800006C08FB7F894E8812E2B28838FBFDF917D
:10309000CF9108958F929F92AF92BF92CF92DF927D
:1030A000EF92FF926B017C011BDC4B015C01C114B0
:1030B000D104E104F104E9F013DCDC01CB0188194F
:1030C0009909AA09BB09883E9340A105B10578F387
:1030D00021E0C21AD108E108F10888EE880E83E0E9
:1030E000981EA11CB11CC114D104E104F10421F704
:1030F000DECFFF90EF90DF90CF90BF90AF909F908A
:103100008F9008952FB7F89460918009709181098C
:1031100080918209909183092FBF08951F920F9289
:103120000FB60F9211242F933F938F939F93AF93DA
:10313000BF938091800990918109A0918209B091FB
:10314000830930917F0923E0230F2D3720F4019666
:10315000A11DB11D05C026E8230F0296A11DB11DBA
:1031600020937F098093800990938109A09382091D
:10317000B09383098091840990918509A091860973
:10318000B09187090196A11DB11D80938409909388
:103190008509A0938609B0938709BF91AF919F914C
:1031A0008F913F912F910F900FBE0F901F90189508
:1031B000CF93CFB7F89480917E09811123C0EEE8B8
:1031C000FEE08491E4EDFEE09491E82FF0E0EE0F54
:1031D000FF1FE752F24FA591B491EC91E92319F446
:1031E00061E085E39EDE61E085E318DF8CB58061F8
:1031F0008CBD8CB580648CBD61E084E30FDF61E041
:1032000083E30CDF80917E098F5F80937E09CFBFBF
:10321000CF9108958F929F92AF92BF92EF92FF92BB
:103220000F931F93CF934B015C01C42F8091A80291
:103230009091A902A091AA02B091AB0288159905BC
:10324000AA05BB0501F10E949B32811102C080E0FA
:1032500020C08CE7E82E87E0F82E00E012E020E0A6
:1032600030E0B501A40180917C0990917D090E9414
:103270006B37882361F38092A8029092A902A092F2
:10328000AA02B092AB0280917707C82BC093770750
:1032900081E0CF911F910F91FF90EF90BF90AF9081
:1032A0009F908F9008958F929F92AF92BF92CF92EE
:1032B000DF92EF92FF920F931F93CF93DF93EC0176
:1032C000142F70937D0960937C09442361F145308C
:1032D00010F080E0F0C040E060E070E0CB019ADFE9
:1032E0008823B9F320E1129FA00111244459584FBB
:1032F000FA01E254FE4F80818F7759F73C96808126
:103300009181A281B38184369105A105B10508F3AD
:103310003497C080D180E280F380C114D104E104ED
:10332000F10421F4D6CFC12CD12C760140E0C701A5
:10333000B60170DF882369F2809187079091880732
:103340008115924031F690918C07992309F4C1CFF1
:1033500020918A0730918B07232B09F4BACF8091F3
:103360008907882309F4B5CF9A8B8C831D8690E05A
:1033700061E070E02D85E22FAB01022E02C0440F08
:10338000551F0A94E2F78417950731F031E0320FA8
:103390003D87283078F39DCF209192073091930795
:1033A0002115310519F040E050E008C02091A00738
:1033B0003091A1074091A2075091A3072D833E832E
:1033C0004F83588780918A0790918B074601570158
:1033D000880E991EA11CB11C8B8A9C8AAD8ABE8A5C
:1033E00000918D0710918E07198F088FA0918C077F
:1033F000B0E00E94FF5F860E971EA81EB91E8A8E3F
:103400009B8EAC8EBD8E85E0000F111F8A95E1F773
:1034100001501E4F012F11270695800E911EA11CF1
:10342000B11C8E869F86A88AB98A20918F07309119
:1034300090072115310521F0A90160E070E008C076
:1034400040919C0750919D0760919E0770919F0746
:10345000D701C60188199909AA09BB09840F951FCC
:10346000A61FB71F04C0B695A79597958795EA95AF
:10347000D2F789879A87AB87BC87853F2FE0920771
:10348000A105B10510F48CE014C0853F9F4FA10544
:10349000B10510F480E10DC08091A8079091A907B3
:1034A000A091AA07B091AB078A8F9B8FAC8FBD8F7D
:1034B00080E28F8B81E0DF91CF911F910F91FF9080
:1034C000EF90DF90CF90BF90AF909F908F90089536
:1034D0004F925F926F927F928F929F92AF92BF9224
:1034E000CF92DF92EF92FF920F931F93CF93DF93D0
:1034F000EC016A017B012801390142305105610567
:10350000710510F480E072C089859A85AB85BC8511
:103510000196A11DB11D84179507A607B70790F363
:103520008B889C88AD88BE888F89803129F4BB2721
:10353000AF2D9E2D8D2D09C0DB01CA0147E0B69548
:10354000A795979587954A95D1F7880E991EAA1E3B
:10355000BB1E8091A8029091A902A091AA02B091ED
:10356000AB0288169906AA06BB0679F48F898031CA
:1035700099F4DD24EE24FF24C601880F991FFC0175
:10358000E458F84F5182408218C040E0C501B401B0
:1035900041DE8111EBCFB6CFE894C7F8DD24EE24ED
:1035A000FF24C601880F991F880F991FFC01E4585A
:1035B000F84F4082518262827382809177078160E6
:1035C000809377078A89823080F08D819E81AF81D8
:1035D000B885880E991EAA1EBB1E8092780790920D
:1035E0007907A0927A07B0927B0781E0DF91CF91B3
:1035F0001F910F91FF90EF90DF90CF90BF90AF9011
:103600009F908F907F906F905F904F9008958F92D2
:103610009F92AF92BF92CF92DF92EF92FF920F9361
:103620001F93CF93DF93FC0181859285A385B48599
:103630000196A11DB11D84179507A607B70710F4C1
:1036400080E05BC083899489A589B689C789C03128
:1036500029F4852E962EA72EBB2409C04A015B01B2
:10366000C7E0B694A79497948794CA95D1F7E901D7
:103670006A017B018F01BC01CD01680D791D8A1D96
:103680009B1D8090A8029090A902A090AA02B090E1
:10369000AB02681579058A059B0599F4F8018789BD
:1036A0008031A1F4B701A601552766277727440F7B
:1036B000551FFA01E458F84F80819181A0E0B0E0F5
:1036C00017C040E0A7DD8111E9CFBACFB701A6014D
:1036D0004F77552766277727440F551F440F551FEF
:1036E000FA01E458F84F80819181A281B381BF70C3
:1036F00088839983AA83BB8381E0DF91CF911F9157
:103700000F91FF90EF90DF90CF90BF90AF909F9080
:103710008F9008954F925F926F927F92AF92BF9277
:10372000CF92DF92EF92FF920F931F93CF93DF938D
:1037300000D01F92CDB7DEB78C0149835A836B83CB
:103740007C835901C12CD12C7601412C82E0582E6A
:10375000612C712C49815A816B817C819E012F5F84
:103760003F4FC80154DF882351F1D301C201F80152
:10377000058404C0880F991FAA1FBB1F0A94D2F7A3
:10378000C80ED91EEA1EFB1E49815A816B817C81BD
:103790008789803129F088EF9FEFAFEFBFE004C049
:1037A00088EF9FEFA0E0B0E0481759076A077B0752
:1037B00088F2F501C082D182E282F38281E00F902B
:1037C0000F900F900F90DF91CF911F910F91FF906D
:1037D000EF90DF90CF90BF90AF907F906F905F9011
:1037E0004F9008952091030A9091040A213208F025
:1037F0004AC08091E0098111FCCF32E03093E009AA
:1038000031E03093DF093FEF3093DE091092DD099C
:103810002093DC09A3EEB9E04CEB59E0FA013E2F0E
:10382000341B321718F43D913193F9CF1092BB0934
:103830002091BB09990F922B9093BB099091BA09E3
:10384000913061F41092BA099091BB099093BB003A
:103850009091BC0093FDF8CF95EC01C095EE90934C
:10386000BC009091E0099230E1F39091DE099F3F16
:1038700079F08091DE09803241F08091DE09803359
:1038800031F084E005C081E003C082E001C083E044
:103890001092E2091092030A1092E10908959091A2
:1038A000E0099111FCCF813208F080E291E0909321
:1038B000E0099093DF092FEF2093DE091092DD09D4
:1038C000280F2093DC099093BB099091BB099E6E51
:1038D0009093BB099091BA09913061F41092BA09A2
:1038E0009091BB099093BB009091BC0093FDF8CFE1
:1038F00095EC01C095EE9093BC009091E009913059
:10390000E1F39091DD09981710F48091DD09ACEB9B
:10391000B9E02AE939E0F9019E2F921B981718F4B3
:103920009D919193F9CF10929909809398090895E8
:103930008F929F92AF92BF92CF92DF92EF92FF92BF
:103940000F931F93CF93DF93CDB7DEB7C054D14011
:103950000FB6F894DEBF0FBECDBF8C01D3DBF801EC
:10396000C184D284E384F4849B01AC012C193D0909
:103970004E095F0969017A0130EDC31637E0D306BD
:10398000E104F10410F48189ADC0F8016187728708
:10399000838794871482138212821182108261E0DD
:1039A0008581BFDA6AEF70E080E090E073DB61E070
:1039B000F801858133DB60E0F8018581B2DA64E1EA
:1039C00070E080E090E066DBF89461E0F8018581CA
:1039D000A8DA8BE990E00197F1F762E0F8018581C0
:1039E0001DDB83E290E00197F1F760E0C8010E94DF
:1039F000C126672B682B692B21F4F801118A789472
:103A000042C061E0C8010E94C126672B682B692B68
:103A1000A1F39E012F5F3F4F79015E013FEBA31A97
:103A20003EEFB30A670160E0C8010E94C126F601BB
:103A3000608371838283938361E0C8010E94C12601
:103A4000F6016483758386839783F8E0CF0ED11CDB
:103A5000CA14DB0441F7789420E030E0F70140819C
:103A600051816281738184809580A680B7804115E1
:103A700051056105710529F081149104A104B10477
:103A800021F4F801118A80E02DC0F90183E0F59559
:103A9000E7958A95E1F7E00FF11F8081880F4815BF
:103AA00059056A057B0508F4816080832F5F3F4FCD
:103AB000F8E0EF0EF11C2832310581F6F80124817F
:103AC00030E04081818190E0840F911D4281840F1C
:103AD000911D4381840F911D99272817390789F675
:103AE00081E0818BC05CDE4F0FB6F894DEBF0FBE65
:103AF000CDBFDF91CF911F910F91FF90EF90DF909D
:103B0000CF90BF90AF909F908F900895DF92EF92EB
:103B1000FF920F931F93CF93DF93CDB7DEB76197DB
:103B20000FB6F894DEBF0FBECDBF7C01D42E693036
:103B300028F0162F6D3018F01CE001C019E0C70105
:103B40000E94523C811302C001E0A8C0BE016F5F19
:103B50007F4FC7010E94EF3B082F882309F49EC0C6
:103B6000F7018081803181F31B3041F01C3021F05E
:103B70001A3031F48FE305C08FE703C08FE501C031
:103B80008FE18D838091140C9091150C0E941A295D
:103B9000B7018091140C9091150C0E94EF2840E021
:103BA0006EE48091140C9091150C0E94AE2840E0B8
:103BB0006B818091140C9091150C0E94AE2840E00E
:103BC0006C818091140C9091150C0E94AE28F70125
:103BD0008081803141F040E06D818091140C9091A2
:103BE000150C0E94AE288091140C9091150C0E9427
:103BF0001A29B7018091140C9091150C0E94EF289E
:103C000040910E0C68E48091140C9091150C0E9468
:103C1000AE2864E170E080E090E03CDA80910E0C28
:103C2000882329F06AE070E080E090E033DA809148
:103C3000140C9091150C0E941A2990910F0C812F51
:103C4000191708F4892F80930F0CD1107DCF181706
:103C500008F07ACF10930F0CE12CF12C8091120C0C
:103C600090E0E816F906D4F46E2DCE010A960E9473
:103C7000133D10910F0CCE010A960E94523C811701
:103C800018F480910F0C04C0CE010A960E94523C99
:103C900080930F0CFFEFEF1AFF0AE0CF802F6196A1
:103CA0000FB6F894DEBF0FBECDBFDF91CF911F914D
:103CB0000F91FF90EF90DF900895CF93DF93C1E0D5
:103CC000C093E10997E79093040A1092E2091092D9
:103CD000030A682F8FE39BE0E6D484DDC093E109FB
:103CE0001092E2091092030A82E090E0D8DD8FE39F
:103CF0009BE08ED4D82F80E0C82F8FE39BE088D440
:103D0000C82BD92B6FDDCE01DF91CF910895CF93D2
:103D1000C82F81E08093E10987E78093040A10921D
:103D2000E2091092030A64EF8FE39BE0BCD46C2F8E
:103D30008FE39BE0B8D4CF9155CD8EE2E8DF65E00C
:103D400070E080E090E0A6D986EFB7CFCF92DF9207
:103D5000EF92FF920F931F93F0DFAC0160E070E0F1
:103D6000E7EFFBE0858996899A01AB01281B390BA7
:103D700041095109A389B4890E94FF5F6B017C014D
:103D80008FE0F594E794D794C7948A95D1F7658529
:103D90007685CB01770FAA0BBB0BBC01CD012BE0C5
:103DA000660F771F881F991F2A95D1F727853089BD
:103DB0008901330F220B330BA90198012C0D3D1DF6
:103DC0004E1D5F1D0E94E35FD701C601820F931F46
:103DD000A41FB51F0896A11DB11DBC01CD0134E083
:103DE00095958795779567953A95D1F70E94C85E26
:103DF00020E030E040E251E40E94A5601F910F9165
:103E0000FF90EF90DF90CF900895CF93C1E0C093E3
:103E1000E10997E79093040A1092E2091092030ACD
:103E2000682F8FE39BE03FD4DDDCC093E109109263
:103E3000E2091092030A81E090E031DD8FE39BE01C
:103E4000E7D3C82FCFDC8C2FCF9108958F929F920C
:103E5000AF92BF92CF92DF92EF92FF92CF93DF9318
:103E60008091140C9091150C0E941A2940E06CEC82
:103E70008091140C9091150C0E94AE2840910E0C6C
:103E800064E48091140C9091150C0E94AE288091EE
:103E9000100C882309F442C0E0910F0CE950E33084
:103EA00040F4F0E0EE0FFF1FE052FD4FC081D181E2
:103EB00002C0CEEED2E08091110C882301F18091F6
:103EC0000E0C81111CC01ED94B015C016E01DD0F6F
:103ED000EE08FF088091140C9091150C0E945B284D
:103EE0008130E1F00FD9DC01CB018C199D09AE09BD
:103EF000BF0988159905AA05BB0560F30FC0BE016F
:103F0000DD0F880B990BDF91CF91FF90EF90DF9041
:103F1000CF90BF90AF909F908F90BCC8DF91CF9112
:103F2000FF90EF90DF90CF90BF90AF909F908F90D9
:103F30000895CF93DF93FC014481558160817181A5
:103F400087E59AE00E943F13EC0187E59AE00E9422
:103F50000E178C0F9D1FDF91CF910895CF93C82F1F
:103F6000462F61E070E00E94A92B61E070E08C2F89
:103F70000E94402C8111F9CFCF910895CF93DF9308
:103F800067E57AE00E94CB16EC0187E59AE00E9493
:103F90000E178C0F9D1FDF91CF910895EF92FF9226
:103FA0000F93CF93DF931F921F92CDB7DEB77C01A3
:103FB00082E993E0F7019183808312821382148255
:103FC000158200E021E040E059E06DE370E0CE01B1
:103FD00001960E947B3D89819A810E94783DB701BC
:103FE0006E5F7F4F44E050E08FE090E00E94B72A80
:103FF0000E94773DC7010F900F90DF91CF910F91F5
:10400000FF90EF9008958F929F92AF92BF92CF92C0
:10401000DF92EF92FF920F931F93CF93DF93B82E0F
:104020004B018A01A22E68E270E00E94402CC82F4A
:10403000D0E069E270E08B2D0E94402CDC2FCC2771
:10404000C82B9E013770CB2CD12CC601880F991F2D
:10405000AC014057564F6A01FA0180819181820F6D
:10406000931FA801420F531F4130584098F060E061
:1040700078E07B01E21AF30AA701B4010E94B72A93
:10408000A8014E195F09B4016E0D7F1DF6018081F4
:10409000918102C0A801B4010E94B72AA1100EC0EC
:1040A000C00FD11F4D2F68E270E08B2D0E94A92B0D
:1040B0004C2F69E270E08B2D0E94A92BDF91CF91EC
:1040C0001F910F91FF90EF90DF90CF90BF90AF9036
:1040D0009F908F9008959F92AF92BF92CF92DF9260
:1040E000EF92FF920F931F93CF93DF93982E8B0144
:1040F0005A01690164E270E00E94402CE82EF12C24
:1041000065E270E0892D0E94402CFE2CEE24E82A06
:10411000E701C00FD11F9E013770E92CF12CC701B8
:10412000880F991FAC014857564F7A01FA018081D8
:104130009181820F931FA9014C0D5D1D41305840A4
:1041400090F000E018E0021B130BA801B5010E94DB
:10415000E12AA601401B510BB501600F711FF70149
:104160008081918102C0A601B5010E94E12ACC0D97
:10417000DD1D4D2F64E270E0892D0E94A92B4C2F8C
:1041800065E270E0892DDF91CF911F910F91FF9033
:10419000EF90DF90CF90BF90AF909F900C94A92BA1
:1041A000FF920F931F93CF93DF93F82EC0E0D0E0E0
:1041B0008F2D0E94AA2C8C01892B21F08F2D0E941B
:1041C000AA2CEC01C017D10799F7CE01DF91CF914E
:1041D0001F910F91FF9008958091250B882321F066
:1041E00080E29BE00E94AB3586EF9AE00E94EE3AB7
:1041F000882389F066EF7AE082E09BE00E94271333
:10420000882349F062E07BE080E29BE00E94C931B4
:1042100091E0811101C090E0892F0895EF92FF9203
:104220000F931F93CF93DF931F92CDB7DEB7162F57
:10423000877028E0829FC0011124682F60648BEB97
:104240009BE0798395D5E12E7981F72E8701085F70
:104250001F4FF70161917F018BEB9BE084D5E01646
:10426000F106B9F70F90DF91CF911F910F91FF9059
:10427000EF9008956F927F929F92AF92BF92CF92EC
:10428000DF92EF92FF920F931F93CF93DF93CDB7FF
:10429000DEB7A9970FB6F894DEBF0FBECDBF7C0185
:1042A000CB01BA019E012F5F3F4F6901890122E0D6
:1042B00040E00E947F5AD70114969C901497129662
:1042C0006D917C911397ED90FC90F6010190002088
:1042D000E9F731975F01AC18BD0887010E5E1F4FEB
:1042E000FB0101900020E9F731979F01261B370B56
:1042F000911003C02E5F3F4F02C02C5F3F4F2A0D2D
:104300003B1D892D880F8063F701828BC70143967F
:10431000422F4F77220F232F221F330B3195211568
:10432000310509F04068DC014D93CD0121153105BF
:1043300079F70E9442393C01992089F0F701E8554C
:10434000FF4F8181D3018C93808111968C93B2E0D1
:104350006B0E711C80819181019691838083A501F0
:10436000B601C3010E941463D701ED91FC91A30132
:104370004A0D5B1D401B510B0284F385E02DB801F3
:10438000C7011995882321F1992019F144EF51E0D3
:10439000B801C7010E94B1380497D1F4F7018289AE
:1043A00090E024E0959587952A95E1F7049781F4AC
:1043B000248930E0322F22278589282B2F5F3F4F19
:1043C000E855FF4F81E0408151812417350709F0FE
:1043D00080E0A9960FB6F894DEBF0FBECDBFDF9187
:1043E000CF911F910F91FF90EF90DF90CF90BF90F2
:1043F000AF909F907F906F900895CF92DF92EF9251
:10440000FF921F93CF93DF93EC0192DA8823B1F1EF
:104410008E818B3029F090F18551823040F02EC092
:104420006A8170E080E090E00E94C65E2BC01A8135
:10443000612F6F7770E080E090E00E94C85E20E01E
:1044400030E040E853E40E94275F6B017C018B81E0
:10445000682F70E080E090E00E94C85E9B01AC0194
:10446000C701B6010E9441602DEC3CEC4CEC5DE3D1
:104470000E94275F17FF06C0905804C060E070E0FC
:1044800080EC9FE7DF91CF911F91FF90EF90DF903D
:10449000CF900895CF92DF92EF92FF92CF93DF9368
:1044A000EC0146DA882381F18E818B3031F160F1A5
:1044B0008551823048F5688170E080E090E00E948C
:1044C000C65E20E030E040E853E40E94275F6B01C5
:1044D0007C018981682F70E080E090E00E94C85ED6
:1044E0009B01AC01C701B6010E9441602DEC3CEC80
:1044F0004CEC5DE30E94275F0BC0688170E080E0B8
:1045000090E00E94C65E04C060E070E080EC9FE72F
:10451000DF91CF91FF90EF90DF90CF900895DC0175
:104520005996ED91FC915A973097B9F08389948907
:10453000A589B6894285538564857585841B950B4D
:10454000A60BB70B811520E89207A105B10538F03D
:104550008FEF9FE7A0E0B0E0089580E090E008953D
:10456000CF93DF931F92CDB7DEB76983DC01ED9166
:10457000FC910280F381E02D41E050E0BE016F5FCD
:104580007F4F19950F90DF91CF91089585ED80931E
:10459000BC008091BC0084FDFCCF1092E00908951E
:1045A0004091270A262F30E0240F311D213231059A
:1045B000DCF42091E0092430C9F4FC0180E090E0B3
:1045C000861758F43091270A2191DC01AB5FB54F73
:1045D000A30FB11D2C930196F3CF8091270A680F8A
:1045E0006093270A80E0089581E0089582E00895AD
:1045F0000895E091990980919809E81730F4F0E066
:10460000E656F64F808190E008958FEF9FEF089572
:104610009091990980919809981750F4E92FF0E04A
:10462000E656F64F208130E09F5F9093990902C0D3
:104630002FEF3FEFC90108958091980990E02091F4
:104640009909821B91090895CF92DF92EF92FF9210
:104650000F931F93CF93DF937C01262F972F8A010F
:104660008091E109882391F0C62FD72F6E01C40EE7
:10467000D51ECC15DD0569F06991D701ED91FC914E
:104680000190F081E02DC7011995F3CF642F822F9F
:1046900087DFC801DF91CF911F910F91FF90EF90BD
:1046A000DF90CF900895CF93DF931F92CDB7DEB701
:1046B00069832091E1092223D1F02091030A20325D
:1046C00040F021E030E0FC013383228380E090E081
:1046D00014C08091E209E82FF0E0ED51F64F998186
:1046E00090838F5F8093E2098093030A04C061E0A6
:1046F000CE01019655DF81E090E00F90DF91CF91E0
:104700000895CF92DF92EF92FF920F931F93CF9372
:10471000DF936B01EA018C549F4F7C01209731F1AC
:10472000D7018D919C91DC01ED91FC910688F78970
:10473000E02D1995811102C080E019C08E01CB3F98
:10474000D10510F00AEF10E0F70180819181DC01C2
:10475000ED91FC910280F381E02DA801B60119953D
:10476000C81BD90B80179107C9F2E6CF81E0DF9112
:10477000CF911F910F91FF90EF90DF90CF90089510
:10478000CF93DF93EC0160E08E810E94911761E08E
:104790008E810E94911760E08E810E9491178BE8B4
:1047A00091E00197F1F7DF91CF910895FC01818DA0
:1047B000928D009711F00C94D4320895CF93DF932B
:1047C000EC01898D9A8D009739F481E090E09B830C
:1047D0008A8380E090E00BC0FC01138212820E9469
:1047E000B635E98DFA8D22813381232B71F7DF9164
:1047F000CF9108958F929F92AF92BF92CF92DF9206
:10480000EF92FF920F931F93CF93DF935B014A01C7
:10481000D22EC32EC22FD32F00E010E08C549F4F16
:104820007C01F70180819181DC01ED91FC9106888A
:10483000F789E02D1995882361F1D7FD2AC0D701AA
:104840008D919C91DC01ED91FC910084F185E02D2E
:104850001995892BB1F0F70180819181DC01ED91EF
:10486000FC910284F385E02D1995F501E00FF11F0D
:1048700080830F5F1F4F0815190559F0CD2DDC2DD2
:10488000DECF2A976AE070E080E090E00E944A184C
:10489000C8CFC801DF91CF911F910F91FF90EF908A
:1048A000DF90CF90BF90AF909F908F90089561E080
:1048B000FC0184810E9491178091560A882321F07F
:1048C0001092560A0C94773D08958FEF49C6CF9207
:1048D000DF92FF920F931F93CF93DF9300D01F922D
:1048E000CDB7DEB76C01F62E29833A834B835C8308
:1048F0000E945137C6010E94FE376CE271E0C6018A
:104900000E941A328F2D80642BD608E110E05C8162
:104910004B813A812981DA01C901002E04C0B69584
:10492000A795979587950A94D2F729833A834B8365
:104930005C8316D60850110929813A814B815C812C
:10494000083F8FEF180739F7FF2029F0E8E0FE1243
:1049500004C087E803C085E901C08FEF01D610E0ED
:10496000B4DFF601828787FF04C01F3F11F01F5F8D
:10497000F7CF0F900F900F900F90DF91CF911F9175
:104980000F91FF90DF90CF900895EF92FF920F93D9
:104990001F93CF93DF93EC017B018A011B821A8264
:1049A00088EE93E0A0E0B0E08C839D83AE83BF836C
:1049B0008CE393E0998388838DE190E00E949E5A76
:1049C0009A8F898F009779F02DE1F701DC01019032
:1049D0000D922A95E1F74CE050E0B801CE010C961B
:1049E0000E943763188EDF91CF911F910F91FF9036
:1049F000EF9008952F923F924F925F926F927F9225
:104A00008F929F92AF92BF92CF92DF92EF92FF92DE
:104A10000F931F93CF93DF931F921F92CDB7DEB7F3
:104A2000FC018581882309F4D9C0848180FFD6C028
:104A300021E02A8343895489658976898285938513
:104A4000A485B585481759076A077B0709F41A82B8
:104A50006F013A81832F90E0DE0111964D013F01F5
:104A6000B6E06B0E711C892B09F47DC0D6011A9635
:104A70004D915D916D917C911D975A01B1E0BB22E2
:104A8000F60125811A012B0189E056944794379449
:104A900027948A95D1F7838D948D223061F4FC019F
:104AA000828D938DA48DB58DBC01CD01620D731DDA
:104AB000841D951D45C0DC0114961C9111501221D6
:104AC000A114B104D1F4111118C0452B462B472B6A
:104AD00051F4F6018789908DA18DB28D86839783DD
:104AE000A087B1870AC0468157816085718593018F
:104AF0000E94071B882309F471C0F601238D348DB1
:104B000086819781A085B1850297A109B109AC0181
:104B1000BD01F901058404C0440F551F661F771FAE
:104B20000A94D2F786859785A089B189840F951F4D
:104B3000A61FB71FBC01CD01610F711D811D911D05
:104B4000D60114962C9126FF14C00091A802109152
:104B5000A9022091AA023091AB0260177107820767
:104B6000930751F506C0FA81FF23C1F1898190E0D6
:104B700037C040E00E940A19882381F1F501E4580A
:104B8000F84FD401CF010196E817F90719F02191E8
:104B90002D93FACFEFEF8E1A9E0AF6018285938548
:104BA000A485B5850196A11DB11D82879387A48731
:104BB000B58780E090E057CF740101E010E09501E7
:104BC000AB01BC0180917C0990917D090E946B37FB
:104BD000882321F0BFEF8B1A9B0ADFCF8FEF9FEF67
:104BE0000F900F90DF91CF911F910F91FF90EF9059
:104BF000DF90CF90BF90AF909F908F907F906F90FD
:104C00005F904F903F902F900895FC01818D928D81
:104C1000009709F0EFCE8FEF9FEF08950F931F934A
:104C2000CF93DF93FC01818D928D0097B1F0EF015E
:104C3000E1DE8C010F3F8FEF180791F0898D9A8D7F
:104C4000FC01428553856485758541505109610990
:104C500071090E94E730C80105C080E090E002C001
:104C60008FEF9FEFDF91CF911F910F910895CF921A
:104C7000DF92EF92FF920F931F93CF93DF937C010C
:104C80006C0187E0C80ED11CC0E0D0E0062F10E018
:104C9000B8010C2E02C0759567950A94E2F7617011
:104CA000F60181916F010E9491172196C430D105C0
:104CB00079F7C701DF91CF911F910F91FF90EF908E
:104CC000DF90CF905DCDCF92DF92EF92FF920F9366
:104CD0001F93CF93DF93EC01F62E642F8C810E94FB
:104CE00091178D818F3F19F060E00E9491178F8599
:104CF0000F2D10E084FF24C06E0187E0C80ED11C88
:104D0000E12CF12CB8010E2C02C0759567950A9420
:104D1000E2F76170F60181916F010E949117FFEF38
:104D2000EF1AFF0A88E0E816F10461F7CE01DF917F
:104D3000CF911F910F91FF90EF90DF90CF9020CDFA
:104D4000B80184E0759567958A95E1F7CE018FDF0C
:104D50006F2DCE01DF91CF911F910F91FF90EF90BA
:104D6000DF90CF9084CF41E0AEDF81E090E0089506
:104D700040E0A9CF61E0FCDF8BE39FE10197F1F711
:104D800008958F929F92AF92BF92CF92DF92EF924F
:104D9000FF920F931F93CF93DC011796CC91179737
:104DA000662311F08C2F01C080E018962C91189783
:104DB00030E0220F331F215C314F40E050E0BA0158
:104DC000F90105911491F80190819C23981315C065
:104DD0006A017B019FEFC91AD90AE90AF90A1D96EF
:104DE0008D909D90AD90BC905097481559056A05DF
:104DF0007B0538F4B701A601E3CF342F252FCB0173
:104E000004C030E020E080E090E0632F722FCF916B
:104E10001F910F91FF90EF90DF90CF90BF90AF90D8
:104E20009F908F9008951F920F920FB60F921124AA
:104E30000BB60F922F933F934F935F936F937F9394
:104E40008F939F93AF93BF93EF93FF938091B9009C
:104E5000887F803609F49CC068F5883209F45BC00D
:104E600090F4803109F454C038F4882309F4F6C072
:104E7000883009F44DC0F5C0883109F44CC0803247
:104E800009F45DC0EEC0803409F468C048F4803392
:104E900009F455C0883309F0E4C08093DE09D8C016
:104EA000803509F44FC0883509F45DC0883409F0B5
:104EB000D8C0D6C0883909F4C7C0A8F4883709F427
:104EC00067C038F4883609F463C0803709F460C0DD
:104ED000C8C0883809F4B8C0803909F45FC0803888
:104EE00009F0BFC05BC0803B09F486C038F4803A4B
:104EF00009F466C0883A09F47FC0B3C0803C09F465
:104F0000A7C0883C09F4A4C0883B09F48AC0A9C0A2
:104F10008091BB0910C09091DD098091DC09981740
:104F200070F5E091DD0981E08E0F8093DD09F0E0FE
:104F3000E454F64F80818093BB0085EC86C080935B
:104F4000DE098EC0E091DD0981E08E0F8093DD09DE
:104F50008091BB00F0E0E454F64F80839091DD092E
:104F60008091DC096EC0E091DD0981E08E0F8093B5
:104F7000DD098091BB00F0E0E454F64F808380911E
:104F8000DF0981116DC081E08093BA0984EA61C0B4
:104F900083E08093E00910924B0ACFCF80914B0AB7
:104FA000803208F051C0E0914B0A81E08E0F80936F
:104FB0004B0A8091BB00F0E0E55DF54F8083BDCFEB
:104FC00085EC8093BC001092E00980914B0A8032FE
:104FD00030F4E0914B0AF0E0E55DF54F108260910E
:104FE0004B0A70E0E091290AF0912A0A8BE29AE0DC
:104FF000199510924B0A35C084E08093E009109215
:10500000280A1092270AE091250AF091260A19959C
:105010008091270A811105C081E08093270A1092B0
:10502000050AE091280A81E08E0F8093280AF0E0BB
:10503000EB5FF54F80818093BB009091280A8091AF
:10504000270A981708F479CF85E88093BC0009C037
:1050500085EC8093BC001092E00903C01092DE0939
:1050600095DAFF91EF91BF91AF919F918F917F91D1
:105070006F915F914F913F912F910F900BBE0F90C9
:105080000FBE0F901F901895DC0180E0615090F0EA
:105090009D919827E92FEF70F0E0E35FF14F2491A5
:1050A00092959F70E92FF0E0E35EF14FE4918E2F2F
:1050B0008227ECCF0895FC0190810180F281E02DE0
:1050C000F8948181892B81832281892F80952823DF
:1050D0002283A7E0B0E01197F1F721818223818339
:1050E000A3E2B0E01197F1F780817894EFECF0E063
:1050F0003197F1F7982381E009F480E00895FC01ED
:1051000090810180F281E02D892F809560FF12C08F
:10511000F8942281822382838181892B8183A3E277
:10512000B0E01197F1F78281982B9283789487ED04
:1051300090E011C0F8942281822382838181892B9F
:105140008183AFEFB0E01197F1F78281982B9283C2
:1051500078948FE090E00197F1F70895CF92DF9275
:10516000EF92FF920F931F93CF93DF931F92CDB7D0
:10517000DEB76C01E62E08E010E0FF24F39461E056
:105180008F2D8E2109F460E0C6014983B8DFFF0C42
:105190000150110949810115110589F7411115C007
:1051A000F894D6011196ED91FC91129791818C9112
:1051B0008095892381831196ED91FC9112979281BC
:1051C0008C9180958923828378940F90DF91CF9181
:1051D0001F910F91FF90EF90DF90CF900895CF92A5
:1051E000DF92EF92FF920F931F93CF93DF931F9263
:1051F000CDB7DEB78C01F62E40E065E57983AEDFF2
:10520000CF2C7981D72E760188E0E80EF11CF601CB
:1052100061916F0140E0C801A1DFCE14DF04B9F74E
:105220000F90DF91CF911F910F91FF90EF90DF9042
:10523000CF900895FC0190810180F281E02DF894D7
:105240008181292F20958223818378948DE743E003
:1052500050E0815021F1DA011197F1F730813923C3
:10526000C1F3F8948281822382838181892B818397
:105270007894ABE7B7E01197F1F7F8948181282390
:105280002183A3E1B1E01197F1F78081982381E0B8
:1052900009F080E07894E3E6F6E03197F1F70895BD
:1052A000FC01EC54FF4F80819181DC01ED91FC9178
:1052B0000688F789E02D199591E0811101C090E0F1
:1052C000892F0895CF93DF93EC01CC54DF4F888171
:1052D0009981DC01ED91FC910688F789E02D199503
:1052E000882349F088819981DC01ED91FC91048843
:1052F000F589E02D199581E0DF91CF9108952C9AE1
:1053000008952C9808950895CF93DF931F92CDB7F9
:10531000DEB76983DC01ED91FC910280F381E02D21
:1053200041E050E0BE016F5F7F4F19950F90DF9114
:10533000CF910895FC01818D928D0895FC0184899F
:105340009589089522E933E0FC0131832083FB0134
:105350004089518962897389FC0142835383648344
:1053600075830895DC01ED91FC91048CF58DE02DA1
:10537000199480E00895FC019485FB0184859813BD
:1053800003C081E0943009F480E0089521E0FC013D
:105390008485843009F420E0822F089508950F93C6
:1053A0001F93CF93DF93EC018C010E5E1F4F86E9B4
:1053B000D8011D928A95E9F76A817B81C8010E9414
:1053C0003063FE01EC54FF4F80819181DC01ED914F
:1053D000FC914C815D810088F189E02DB80119951F
:1053E00021E0892B09F420E0822FDF91CF911F91DA
:1053F0000F910895EF92FF920F931F93CF93DF9336
:105400001F921F92CDB7DEB7182F7B0100E021E07D
:1054100040E059E06DE370E0CE0101960E947B3DD3
:1054200089819A810E94783D21E041E050E0B701F6
:10543000812F0E9403200E94773D81E090E00F9031
:105440000F90DF91CF911F910F91FF90EF900895F2
:10545000CF93DF931F92CDB7DEB7FC01218D328D44
:10546000232B41F0BE016F5F7F4F808DC3DF8981A9
:1054700090E002C08FEF9FEF0F90DF91CF910895E2
:105480000F931F93CF93DF931F92CDB7DEB78C019D
:10549000DC01ED91FC910084F185E02D1995892BBB
:1054A00049F0BE016F5F7F4FF8018485A3DF8981DA
:1054B00090E002C08FEF9FEF0F90DF91CF911F918F
:1054C0000F9108958F929F92AF92BF92CF92DF92E9
:1054D000EF92FF920F931F93CF93DF931F921F9230
:1054E000CDB7DEB76C014B017A01FC01A688B78805
:1054F000108D00E021E040E059E06DE370E0CE0166
:1055000001960E947B3D89819A810E94783D812F7E
:105510000E94D0208E159F0520F4812F0E94D0205C
:105520007C019701A401B501812F0E946B200E948C
:10553000773DF601868997898E0D9F1D978B868B07
:10554000C7010F900F90DF91CF911F910F91FF90A6
:10555000EF90DF90CF90BF90AF909F908F90089585
:105560008EBD00000DB407FEFDCF8EB50895CF921D
:10557000DF92EF92FF920F931F93CF93DF93EC0193
:105580007A018B016C01C40ED51ECC15DD0579F0B6
:10559000B8DE8FE0E5DF8D2FE3DF8C2FE1DF219692
:1055A00080E0DEDFF80181938F01A9DEEECFC70135
:1055B000DF91CF911F910F91FF90EF90DF90CF90EF
:1055C0000895CF92DF92EF92FF920F931F93CF93A4
:1055D000DF93EC017A018B016C01C40ED51ECC1552
:1055E000DD0571F08EDE80EFBBDF8D2FB9DF8C2FF4
:1055F000B7DF2196F80181918F01B2DF80DEEFCF16
:10560000C701DF91CF911F910F91FF90EF90DF9035
:10561000CF9008951F93CF93DF931F921F92CDB722
:10562000DEB7182F6A8399836CDE80EF99DF99814A
:10563000892F96DF812F94DF6A81862F91DF5FDECD
:1056400081E00F900F90DF91CF911F910895FC01A1
:105650001382128288EE93E0A0E0B0E08483958309
:10566000A683B78380EF92E09183808382E993E001
:1056700097878687108A118A128A138A84E0808F1E
:105680000895CF92DF92EF92FF920F931F93CF93E3
:10569000DF93CDB7DEB7E1970FB6F894DEBF0FBE4C
:1056A000CDBF7C016A0102E913E01A8309831B82E2
:1056B0001C821D821E82CE01099668AB79ABC7DFC2
:1056C0001DA30CA31EA21FA218A619A680914D0B04
:1056D00090914E0BA0914F0BB091500B8CA79DA7B2
:1056E000AEA7BFA78B839C83AD83BE8318861F8222
:1056F000AE014C5D5F4F68A979A9CE0101960E9469
:10570000DE3E81309105B1F4D701ED91FC91048822
:10571000F589E02D1BA70AA78EA19FA1A8A5B9A571
:105720008CA79DA7AEA7BFA7A601BE01665D7F4F50
:10573000C7011995E1960FB6F894DEBF0FBECDBF35
:10574000DF91CF911F910F91FF90EF90DF90CF905D
:1057500008959B0190E00496982F8827642F820F6C
:10576000931F58CF0F931F93CF93DF931F921F92D6
:10577000CDB7DEB7182F00E021E040E059E06DE33F
:1057800070E0CE0101960E947B3D89819A810E9442
:10579000783D60E170E0812F0E94AE1F4FEF62E024
:1057A00070E0812FD6DF0E94773D0F900F90DF9140
:1057B000CF911F910F910895CF92DF92EF92FF92B8
:1057C0000F931F93CF93DF931F921F92CDB7DEB736
:1057D000182FC62E7A01D22EC5DF00E021E040E06E
:1057E00059E06DE370E0CE0101960E947B3D898116
:1057F0009A810E94783D4C2D4D2960E070E0812F08
:10580000A8DFE114F10459F4E090540AF090550A2D
:105810008FEFE81AF80AF092550AE092540A4F2DD9
:1058200064E070E0812F95DF4E2D65E070E0812F00
:1058300090DF61E070E0812F0E94AE1F0E94773DF3
:1058400081E00F900F90DF91CF911F910F91FF900A
:10585000EF90DF90CF900895CF93DF93EC01888D88
:10586000843059F07FDFE88DF0E0EE0FFF1FE45B3E
:10587000F54F1182108284E0888FDF91CF910895D7
:105880000F931F93CF93DF931F92CDB7DEB790E0B6
:105890000496982F88278C01060F171F32DD8FE0A2
:1058A0005FDE812F5DDE802F5BDE80E059DE898345
:1058B00026DD89810F90DF91CF911F910F9108957F
:1058C0001F93CF93DF93182F66E270E0D9DFC82FC4
:1058D000D0E067E270E0812FD3DFDC2FCC279E0180
:1058E000282BC901DF91CF911F910895DF92EF928C
:1058F000FF920F931F93CF93DF931F921F92CDB709
:10590000DEB7D82E00E021E040E059E06DE370E022
:10591000CE0101960E947B3D89819A810E94783D4B
:1059200000E010E08D2DCCDF7C01892B19F08D2D4E
:10593000C7DF8C010E151F05A9F70E94773DC8012E
:105940000F900F90DF91CF911F910F91FF90EF90EB
:10595000DF9008951F93CF93DF93182F60E270E0DC
:105960008FDFC82FD0E061E270E0812F89DFDC2F6C
:10597000CC279E01282BC901DF91CF911F9108955B
:105980000F931F93CF93DF9300D0CDB7DEB7182FBF
:1059900000E021E040E059E06DE370E0CE010196C7
:1059A0000E947B3D89819A810E94783D63E070E08E
:1059B000812F66DF8B830E94773D8B810F900F9044
:1059C0000F90DF91CF911F910F910895EF92FF9269
:1059D0001F93CF93DF93FC01208D243011F080E0E2
:1059E0001AC07B01EC0110E0812FCADF811102C0D7
:1059F000188F05C08831E1F31F5F1430A9F7888D37
:105A0000843069F3FD86EC861A8E198E20E0A7019A
:105A100062E0D2DE81E0DF91CF911F91FF90EF90A5
:105A200008958F929F92AF92BF92CF92DF92FF9292
:105A30000F931F93CF93DF931F921F92CDB7DEB7C3
:105A4000F82E4B016A0100E021E040E059E06DE3EF
:105A500070E0CE0101960E947B3D89819A810E946F
:105A6000783D00E010E08F2D2BDF5C01892B19F0D1
:105A70008F2D26DF8C010A151B05A9F701151105CD
:105A800091F463E070E08F2DFBDE8431F1F0882328
:105A9000E1F001E010E08C3111F400E010E011952C
:105AA0000195110912C0C016D1060CF4860110161A
:105AB00011065CF420E0A801B4018F2D0E940320A0
:105AC00060E470E08F2D0E94AE1F0E94773DC801F8
:105AD0000F900F90DF91CF911F910F91FF90DF906A
